:02000000462D8B
:100006008312031321089300831614180C2800008A
:0A001600072883121308F000080009
:0E0020008316031359088A005808820008004E
:10002E0083160313141925281F301105F1007108CA
:10003E00003A031D25280130F0002628F0010800A3
:10004E00831203136C080317920003136D08031732
:10005E00930003136E080317940003136F0803171E
:10006E009500900191011108123C031D40281008C3
:10007E008E3C031C4D2817207008031947284D2865
:10008E0083120317900A0319910A3A288312031751
:10009E0012301102031D55288F301002031C5A28EE
:1000AE007B30F0008D28831603131114831603136F
:1000BE00111C8C2883126C086D046E046F040319D6
:1000CE008B2803171208130414041504031D822829
:1000DE00831603135308840005308000840A5108E8
:1000EE00D8005208D90010208A110A12013083124A
:1000FE000313F0008D28013003179202031C9302A4
:0E010E00031C9402031C95025D28F0010800FA
:10011C00710DF80DF90D7408F8027508031C750FB4
:10012C00F902F00DF10D0F30FC00710DF80DF90D09
:10013C007408701CA728F8027508031C750FF902C7
:10014C00AC28F80775080318750FF907F00DF10DB9
:10015C00FC0B9B287018B8287408F807750803184E
:08016C00750FF90700000800FF
:080174008316031311150800A6
:10017C00831203138C11200893006C080317900052
:10018C0003136D080317910003136E0803179200F5
:10019C0003136F080317930083160313141D01290F
:1001AC0083126C086D046E046F0403190029031785
:1001BC001008110412041304031DF72883160313EB
:1001CC005308840004308000840A5108D800520877
:1001DC00D90010208A110A12013083120313F00087
:1001EC004829013003179002031C9102031C920250
:1001FC00031C9302D228831203136C08031790007C
:10020C0003136D080317910003136E080317920074
:10021C0003136F080317930003138C193F296C0801
:10022C006D046E046F0403193E29031710081104A2
:10023C0012041304031D3529831603135308840079
:10024C0004308000840A5108D8005208D9001020CC
:10025C008A110A12013083120313F000482901306D
:10026C0003179002031C9102031C9202031C9302BD
:10027C00122983160313111B4529F0014829111566
:06028C000230F000080042
:10029200F030831603136C05ED000430F2006C0895
:1002A200F000F101720803195B29F00DF10D7010D5
:1002B200FF3E5429F030F0050030F1057008EE00E1
:1002C20027204E3083120313A000BE200C30831669
:1002D20003136D048312A000BE200830831603139B
:1002E2006D048312A000BE20BA2027204E30831254
:1002F2000313A000BE200C30831603136E04831276
:10030200A000BE200830831603136E048312A000DF
:10031200BE20BA200330FC009730FD00FD0B8F2970
:0A032200FC0B8F290000000008000A
:10032C00F030831603136C05ED000430F2006C08FA
:10033C00F000F10172080319A829F00DF10D7010ED
:10034C00FF3EA129F030F0050030F1057008EE00F9
:10035C0027204E3083120313A000BE200D308316CD
:10036C0003136D048312A000BE20093083160313FF
:10037C006D048312A000BE20BA2027204E308312B9
:10038C000313A000BE200D30831603136E048312DA
:10039C00A000BE200930831603136E048312A00044
:1003AC00BE20BA200330FC009730FD00FD0BDC2989
:0A03BC00FC0BDC2900000000080023
:1003C600831203137408003A031DF2297508003AD4
:1003D600031DF229FF30F0007F30F1004B2A831213
:1003E6000313FD01F901F8017108700403190034C3
:1003F60071087506FA00FA1BFD09FB01F51F082AAC
:10040600F409F509F40A0319F50AF11F0F2AF00990
:10041600F109F00A0319F10A71087504FA00FA1BCA
:10042600242A8E207B18372AFD1F0034F009F10993
:10043600F00A0319F10AF809F909F80A0319F90A81
:100446000034F51F332AF11B2F2A7108F9007008B2
:10045600F800F101F001172AF101F001F00A003469
:10046600F109F009FB0A142AF80A0319F90A7408B3
:100476007802031D172A75087902031D172AF90148
:10048600F801F00A0319F10AF11F172A0000FF34D8
:0204960008005C
:10049800831203131A08F100981C542A181218160C
:0604A8007108F0000800DD
:1004AE00831603135F08393C031C642A30305F0245
:0E04BE00031C642A0130F000652AF0010800DA
:0E04CC000030831203138C1A0130F000080078
:1004DA0083120313FB01FA01F9018030F800F10CD1
:1004EA00F00C031C812A7408F90775080318750FA4
:1004FA00FA070318FB0A0310F01F892A7408FA077F
:10050A0075080318750FFB07FB0CFA0CF90CF80CAD
:10051A00031C742A7B08F3007A08F2007908F100B8
:06052A007808F000080053
:0E0530008316031359088A0058088200080039
:10053E00831603135F08840000080319AD2A5F08B1
:0E054E0084000008EC009621DF0A9F2A0800B6
:10055C00013083160313EC0049210730FC007D3079
:0C056C00FD00FD0BB72AFC0BB72A0800AD
:10057800831603135F08F0006008F1000130DF0202
:10058800031CE003700871040319D92A0630FB0024
:100598001330FC00AD30FD00FD0BD02AFC0BD02A37
:0C05A800FB0BD02A00000000BC2A080059
:1005B400831603135F08F2006108F0006208F1007B
:1005C4000130E102031CE203700871040319F02AEC
:1005D4007208840060088000F20ADE2A5F08F000D6
:0205E40008000D
:1005E60083160313E301E401E501E601E701E801EF
:1005F600E901EA0100306006031D032B00305F06A7
:10060600031D122B67086107840030308000E70A5B
:100616000319E80A6708610784008001A02B80306F
:100626006006F00080307002031D1B2B00305F0255
:100636000318292B0130E9000030EA005F08003C6E
:10064600DF006008031C013EE001E0028030F0009C
:10065600803060067002031D322B5F08003C0318D1
:100666005D2B67086107EB000A30F4000030F500E7
:100676005F08F0006008F100E3217808F0007908CF
:10068600F1003030F00783166B0884007008800094
:10069600E70A0319E80A0A30F4000030F5005F089B
:1006A600F0006008F100E32170088316DF0071088E
:1006B600E000292B69086A040319692B670861079A
:1006C60084002D308000E70A0319E80A67086107ED
:1006D60084008001E301E40101306702E500003097
:1006E600031C013E6802E60080306406F00080309C
:1006F60066067002031D812B650863020318A02B92
:1007060063086107F100710884000008E2006508CB
:10071600610784000008F0007108840070088000FA
:1007260065086107840062088000E30A0319E40A89
:0C0736000130E502031CE603772B0800ED
:100742008316031354084C3A031DCC2B5508DF00C3
:10075200572270080319CC2B5608DF005722700865
:100762000319CC2B30305502F000F101031CF103C8
:100772000A30F4000030F5006D2230308316560244
:10078200F200F301031CF3037208F0077308031865
:0C079200013EF107CE2BF001F101080040
:10079E00831603135A08F2007208F000F20A70086A
:1007AE00840000080319DC2BD32B5A087202F000C8
:0C07BE000130F002F101031CF1030800FF
:1007CA00831203134308003C031DED2B4208003C2F
:1007DA0003180F2CAE22831242088316DF008312FD
:1007EA0043088316E000DA30E100F322C030EC005F
:1007FA0049213F30DF009F22DA30DF009F2201309B
:10080A00DF000030E000BC2201308312C202031C68
:10081A00C303E52BAE22C030EC0049212230DF00B1
:04082A009F22080001
:10082E00AE228030EC0049218312871C232CB83075
:10083E008316DF009F22272C83163130DF009F2284
:10084E00C030EC0049218312071C322C2A3083164B
:10085E00DF009F22362C83163830DF009F220800DF
:10086E0083160313DA01D430DF00E0010430E10017
:10087E000030E200DA228030F0008030003A700260
:10088E00031D4B2C03305A0203186E2C662270087F
:10089E00031D522C4D2C83165A08D43EDB004C22DD
:1008AE0083165B088400700880005A08D43E8400CA
:1008BE0000080A3A03196B2C5A08D43E840000082B
:1008CE000D3A03196B2C6C2C6E2CDA0A422C5A083A
:0808DE00D43E840080010800F3
:1008E6001A3083120313FC00F830FD00FD0B792C3F
:1008F600FC0B792C000033308316EC004921323092
:10090600EC0049212830EC0049210C30EC0049214B
:100916000630EC0049210130EC0049210730FC008B
:0E0926007D30FD00FD0B952CFC0B952C080080
:10093400173083160313CE000030CF000030D000F0
:1009440000302730C8000030C9000030CA00003031
:10095400FF30CB00FF30CC000030CD000030FF3042
:10096400C500FF30C600FF30C700FF30BE30BF00F7
:100974000030C0002030C1000030BA30C200003066
:10098400C3000030C40000301413941307168715F5
:080994003830831294000800C2
:10099C0098228A110A128000840AD80A0319D90AEB
:0809AC00F003031DCE2C08002E
:1009B40083160313981690308312980083168717B2
:1009C400071383128C1EE92C1A08F000E32C08008C
:1009D400831603135A088400000803193D2D5B088D
:1009E4008400000803193D2D5A0884006130000278
:1009F400031C0B2D5A08840000087A3C031C0B2DA1
:100A04005A08840020300002F100F201031CF203B2
:100A1400122D5A0884000008F100F2010030F2009F
:100A24007108F5005B08840061300002031C292D65
:100A34005B08840000087A3C031C292D5B088400B1
:100A440020300002F300F401031CF403302D5B0892
:100A540084000008F300F4010030F4007308F60089
:100A64007508730603193A2D76087502F000452DB2
:100A7400DA0ADB0AEA2C5A0884000008F0005B0852
:080A840084000008F0020800E4
:100A8C006A268316031307108710031788010910B1
:100A9C00061403130811831208117F30831681008A
:100AAC000B168B17831207108710193083169900B9
:100ABC001815DA240A30831693009A248230FC002D
:100ACC00DD30FD00FD0B682DFC0B682D00000000D7
:100ADC007324AE228030EC0049214B30DF009F2282
:100AEC00C030EC0049214430DF009F2237245408E9
:100AFC004C3A031DBB2DD430DA00CF2300307106E5
:100B0C00031D8A2D03307006031DBB2D5508DF0015
:100B1C00572270080319BB2D5608DF0057227008A6
:100B2C000319BB2DA12370088312C2007108C300E6
:100B3C007108003C031DA42D7008003C0318B32D54
:100B4C000130D2000030D30007141724E5238312A0
:100B5C000710D201D3011724BA2DAE22C030EC00FD
:100B6C0049215830DF009F22F62DD430DA00543062
:100B7C00DB00EA247008003A031DC82D8312071409
:100B8C001724F62DD430DA006830DB00EA24700824
:100B9C00003A031DD52D831207101724F62DD430DF
:100BAC00DA00B030DB00EA247008003A031DE22DB5
:100BBC00831287141724F62DD430DA00B430DB00FE
:100BCC00EA247008003A031DEF2D831287101724B6
:100BDC00F62DAE22C030EC004921A030DF009F2260
:040BEC007C2DF72D38
:100CD400223084004E3083120313F000FD3083165B
:100CE400D8000530D900CE24A03084001F3003136F
:100CF400F0004B308316D8000630D900CE2408000B
:100BFA004C343A34203444344F344E34453400347F
:0E0C0A004C343A3420344F344E34203400340D
:0E0C180046343A3420344F34463446340034E7
:0E0C26004C343A3420344F34463446340034D3
:060C34004C343A34003498
:040C3A00003400344E
:0E0C3E004C343A3420344F34463446340034BB
:0E0C4C0046343A3420344F34463446340034B3
:040C5A00003400342E
:080C5E004C344F344E340034D5
:100C660049346E34763461346C34693464342034F7
:100C760043346F346D346D3461346E34643400340F
:080C86004C344F3446340034B5
:080C8E0000340034003400348E
:100C960049346E34763461346C34693464342034C7
:100CA60043346F346D346D3461346E3464340034DF
:080CB60046344F344E34003483
:080CBE0046344F344634003483
:0E0CC60046343A3420344F344E342034003457
:04400E00F22F000786
:00000001FF
